:020000040800F2
:1000000000000120312F00089B1E0008A31E0008DD
:10001000AB1E0008B31E0008BB1E00080000000055
:10002000000000000000000000000000C31E0008E7
:10003000CF1E000800000000DB1E0008E71E0008BD
:10004000812F0008812F0008F51E0008812F00086D
:10005000812F0008812F0008812F0008812F0008C0
:10006000812F0008812F0008812F0008091F000838
:100070001D1F0008812F0008812F0008812F000814
:10008000812F0008812F0008812F0008812F000890
:1000900000000000812F0008812F0008812F000838
:1000A000812F0008812F0008812F0008812F000870
:1000B000812F0008812F0008812F0008812F000860
:1000C000812F0008812F0008812F0008812F000850
:1000D000311F0008451F0008812F0008812F0008EC
:1000E000812F0008812F0008591F0008812F000868
:1000F000812F00080000000000000000812F000890
:10010000812F0008812F00086D1F0008812F000833
:10011000812F0008812F0008812F0008812F0008FF
:10012000812F0008812F0008812F0008812F0008EF
:08013000812F0008812F000857
:1001380010B5054C237833B9044B13B10448AFF319
:1001480000800123237010BD48010020000000003A
:10015800F0D0010808B5034B1BB103490348AFF3BE
:10016800008008BD000000004C010020F0D001080C
:10017800034613F8012B002AFBD1181A01387047DF
:1001880081F0004102E000BF83F0004330B54FEA40
:1001980041044FEA430594EA050F08BF90EA020FAD
:1001A8001FBF54EA000C55EA020C7FEA645C7FEA40
:1001B800655C00F0E2804FEA5454D4EB5555B8BF63
:1001C8006D420CDD2C4480EA020281EA030382EAD4
:1001D800000083EA010180EA020281EA0303362D66
:1001E80088BF30BD11F0004F4FEA01314FF4801C39
:1001F8004CEA113102D0404261EB410113F0004F4B
:100208004FEA03334CEA133302D0524263EB430301
:1002180094EA050F00F0A780A4F10104D5F1200E9F
:100228000DDB02FA0EFC22FA05F2801841F10001FA
:1002380003FA0EF2801843FA05F359410EE0A5F1CE
:1002480020050EF1200E012A03FA0EFC28BF4CF0FF
:10025800020C43FA05F3C01851EBE37101F00045B5
:1002680007D54FF0000EDCF1000C7EEB00006EEBC2
:100278000101B1F5801F1BD3B1F5001F0CD349084C
:100288005FEA30004FEA3C0C04F101044FEA4452A3
:1002980012F5800F80F09A80BCF1004F08BF5FEA2A
:1002A800500C50F1000041EB045141EA050130BD0A
:1002B8005FEA4C0C404141EB0101013C28BFB1F51C
:1002C800801FE9D291F0000F04BF01460020B1FA67
:1002D80081F308BF2033A3F10B03B3F120020CDA3A
:1002E8000C3208DD02F1140CC2F10C0201FA0CF018
:1002F80021FA02F10CE002F11402D8BFC2F1200C7D
:1003080001FA02F120FA0CFCDCBF41EA0C01904032
:10031800E41AA2BF01EB0451294330BD6FEA04047B
:100328001F3C1CDA0C340EDC04F11404C4F1200266
:1003380020FA04F001FA02F340EA030021FA04F378
:1003480045EA030130BDC4F10C04C4F1200220FACF
:1003580002F001FA04F340EA0300294630BD21FA0D
:1003680004F0294630BD94F0000F83F4801306BFD3
:1003780081F480110134013D4EE77FEA645C18BFC7
:100388007FEA655C29D094EA050F08BF90EA020F5E
:1003980005D054EA000C04BF1946104630BD91EA56
:1003A800030F1EBF0021002030BD5FEA545C05D159
:1003B8004000494128BF41F0004130BD14F5800498
:1003C8003CBF01F5801130BD01F0004545F0FE410C
:1003D80041F470014FF0000030BD7FEA645C1ABF41
:1003E800194610467FEA655C1CBF0B46024650EA78
:1003F800013406BF52EA033591EA030F41F40021A4
:1004080030BD00BF90F0000F04BF0021704730B529
:100418004FF4806404F132044FF000054FF00001FE
:1004280050E700BF90F0000F04BF0021704730B5BF
:100438004FF4806404F1320410F0004548BF404294
:100448004FF000013EE700BF42004FEAE2014FEAE9
:1004580031014FEA02701FBF12F07F4393F07F4FC4
:1004680081F06051704732F07F4208BF704793F0C7
:100478007F4F04BF41F40021704730B54FF46074DA
:1004880001F0004521F000411CE700BF50EA0102DD
:1004980008BF704730B54FF000050AE050EA010286
:1004A80008BF704730B511F0004502D5404261EBF6
:1004B80041014FF4806404F132045FEA915C3FF437
:1004C800D8AE4FF003025FEADC0C18BF03325FEAD4
:1004D800DC0C18BF033202EBDC02C2F1200300FA85
:1004E80003FC20FA02F001FA03FE40EA0E0021FAAA
:1004F80002F11444BDE600BF4FF0FF3C06E000BF28
:100508004FF0010C02E000BF4FF0010C4DF804CD94
:100518004FEA410C7FEA6C5C4FEA430C18BF7FEA54
:100528006C5C1BD001B050EA410C0CBF52EA430C82
:1005380091EA030F02BF90EA020F0020704710F102
:10054800000F91EA030F58BF994208BF90422CBF91
:10055800D8176FEAE37040F0010070474FEA410C8A
:100568007FEA6C5C02D150EA013C07D14FEA430CA8
:100578007FEA6C5CD6D152EA033CD3D05DF8040B19
:10058800704700BF8446104662468C46194663464B
:1005980000E000BF01B5FFF7B7FF002848BF10F122
:1005A800000F01BD4DF808EDFFF7F4FF0CBF012067
:1005B80000205DF808FB00BF4DF808EDFFF7EAFFE3
:1005C80034BF012000205DF808FB00BF4DF808ED9E
:1005D800FFF7E0FF94BF012000205DF808FB00BF93
:1005E8004DF808EDFFF7CEFF94BF012000205DF81D
:1005F80008FB00BF4DF808EDFFF7C4FF34BF01202A
:1006080000205DF808FB00BF4FEA410212F5001216
:1006180015D211D56FF47873B3EB625212D94FEA41
:10062800C12343F0004343EA505311F0004F23FA2B
:1006380002F018BF404270474FF00000704750EA80
:10064800013005D111F0004008BF6FF0004070473D
:100658004FF00000704700BF80F0004002E000BF8C
:1006680081F0004142001FBF5FEA410392EA030F95
:100678007FEA226C7FEA236C6AD04FEA1262D2EBDF
:100688001363C1BFD218414048404140B8BF5B42E4
:10069800192B88BF704710F0004F40F4000020F07D
:1006A8007F4018BF404211F0004F41F4000121F093
:1006B8007F4118BF494292EA030F3FD0A2F10102DD
:1006C80041FA03FC10EB0C00C3F1200301FA03F11B
:1006D80000F0004302D5494260EB4000B0F5000F3E
:1006E80013D3B0F1807F06D340084FEA310102F1FD
:1006F8000102FE2A51D2B1F1004F40EBC25008BFAF
:1007080020F0010040EA03007047490040EB000078
:10071800013A28BFB0F5000FEDD2B0FA80FCACF179
:10072800080CB2EB0C0200FA0CF0AABF00EBC250A6
:1007380052421843BCBFD0401843704792F0000F94
:1007480081F4000106BF80F400000132013BB5E7E7
:100758004FEA41037FEA226C18BF7FEA236C21D05D
:1007680092EA030F04D092F0000F08BF08467047C2
:1007780090EA010F1CBF0020704712F07F4F04D190
:10078800400028BF40F00040704712F100723CBFA3
:1007980000F50000704700F0004343F0FE4040F4CD
:1007A800000070477FEA226216BF08467FEA23638B
:1007B8000146420206BF5FEA412390EA010F40F476
:1007C800800070474FF0000304E000BF10F00043C2
:1007D80048BF40425FEA000C08BF704743F09643A9
:1007E80001464FF000001CE050EA010208BF7047C4
:1007F8004FF000030AE000BF50EA010208BF70474B
:1008080011F0004302D5404261EB41015FEA010C5F
:1008180002BF84460146002043F0B64308BFA3F157
:100828008053A3F50003BCFA8CF2083AA3EBC25339
:1008380010DB01FA02FC634400FA02FCC2F1200258
:10084800BCF1004F20FA02F243EB020008BF20F08F
:100858000100704702F1200201FA02FCC2F12002F5
:1008680050EA4C0021FA02F243EB020008BF20EAEA
:10087800DC7070474FF0FF0C1CEAD0521EBF1CEA18
:10088800D15392EA0C0F93EA0C0F6FD01A4480EA06
:10089800010C400218BF5FEA41211ED04FF00063EF
:1008A80043EA501043EA5111A0FB01310CF000401B
:1008B800B1F5000F3EBF490041EAD3715B0040EA41
:1008C800010062F17F02FD2A1DD8B3F1004F40EB11
:1008D800C25008BF20F00100704790F0000F0CF0E4
:1008E800004C08BF49024CEA502040EA51207F3AA8
:1008F800C2BFD2F1FF0340EAC250704740F4000083
:100908004FF00003013A5DDC12F1190FDCBF00F073
:1009180000407047C2F10002410021FA02F1C2F121
:10092800200200FA02FC5FEA310040F1000053EABD
:100938004C0308BF20EADC70704792F0000F00F00B
:10094800004C02BF400010F4000F013AF9D040EA11
:100958000C0093F0000F01F0004C02BF490011F4A5
:10096800000F013BF9D041EA0C018FE70CEAD153A3
:1009780092EA0C0F18BF93EA0C0F0AD030F0004C23
:1009880018BF31F0004CD8D180EA010000F00040D7
:10099800704790F0000F17BF90F0004F084691F095
:1009A800000F91F0004F14D092EA0C0F01D14202CF
:1009B8000FD193EA0C0F03D14B0218BF084608D198
:1009C80080EA010000F0004040F0FE4040F40000E2
:1009D800704740F0FE4040F4400070474FF0FF0C75
:1009E8001CEAD0521EBF1CEAD15392EA0C0F93EABC
:1009F8000C0F69D0A2EB030280EA010C49024FEA0E
:100A0800402037D04FF0805343EA111143EA1013C6
:100A18000CF000408B4238BF5B0042F17D024FF47E
:100A2800000C8B4224BF5B1A40EA0C00B3EB510F59
:100A380024BFA3EB510340EA5C00B3EB910F24BF42
:100A4800A3EB910340EA9C00B3EBD10F24BFA3EBC7
:100A5800D10340EADC001B0118BF5FEA1C1CE0D18F
:100A6800FD2A3FF650AF8B4240EBC25008BF20F042
:100A7800010070470CF0004C4CEA50207F32C2BF96
:100A8800D2F1FF0340EAC250704740F400004FF033
:100A98000003013A37E792F0000F00F0004C02BF64
:100AA800400010F4000F013AF9D040EA0C0093F02E
:100AB800000F01F0004C02BF490011F4000F013B88
:100AC800F9D041EA0C0195E70CEAD15392EA0C0FF0
:100AD80008D142027FF47DAF93EA0C0F7FF470AF28
:100AE800084676E793EA0C0F04D14B023FF44CAF6B
:100AF80008466EE730F0004C18BF31F0004CCAD100
:100B080030F000427FF45CAF31F000437FF43CAF3B
:100B18005FE700BF4FEA4002B2F1FE4F0FD34FF03C
:100B28009E03B3EB12620DD94FEA002343F0004352
:100B380010F0004F23FA02F018BF404270474FF000
:100B48000000704712F1610F01D1420205D110F087
:100B5800004008BF6FF0004070474FF0000070473A
:100B680042000ED2B2F1FE4F0BD34FF09E03B3EB0F
:100B7800126209D44FEA002343F0004323FA02F03B
:100B880070474FF00000704712F1610F01D1420227
:100B980002D14FF0FF3070474FF00000704700BFA0
:100BA80053B94AB9002908BF00281CBF4FF0FF31CC
:100BB8004FF0FF3000F088B9ADF1080C6DE904CEB4
:100BC80000F006F8DDF804E0DDE9022304B0704720
:100BD8002DE9F047089D8E4604468846002B4AD1E9
:100BE8008A42174662D9B2FA82F64EB1C6F120039C
:100BF80001FA06F820FA03F3B74043EA0808B440BC
:100C08004FEA174E1FFA87FCB8FBFEF1230C0EFBC8
:100C1800118843EA084301FB0CF29A4209D9FB18F0
:100C280001F1FF3080F0EA809A4240F2E780023911
:100C38003B449A1AA3B2B2FBFEF00EFB102243EA21
:100C4800024300FB0CFC9C4509D9FB1800F1FF325C
:100C580080F0D6809C4540F2D3803B44023840EA7D
:100C68000140A3EB0C0300211DB1F3400022C5E9AC
:100C78000032BDE8F0878B4205D90DB1C5E9000106
:100C880000210846F5E7B3FA83F1002946D17345F8
:100C980002D3824200F20581841A6EEB030201201E
:100CA8009046002DE5D0C5E90048E2E7002A00F0AB
:100CB8009080B2FA82F6002E40F0A4808A1A030CC3
:100CC8004FEA174E80B2BCB20121B2FBFEFC0EFB0C
:100CD8001C2243EA024304FB0CF29A4207D9FB1890
:100CE8000CF1FF3802D29A4200F2E080C4469B1A07
:100CF800B3FBFEF20EFB123340EA034302FB04F49B
:100D08009C4207D9FB1802F1FF3002D29C4200F244
:100D1800CA8002461B1B42EA0C40A5E7C1F1200627
:100D28008B4022FA06F71F430EFA01F420FA06F365
:100D38002EFA06FE4FEA1749234300FA01F81FFA74
:100D480087FCBEFBF9F01C0C09FB10EE44EA0E44CC
:100D580000FB0CFEA64502FA01F209D93C1900F184
:100D6800FF3A80F09C80A64540F2998002383C44C6
:100D7800A4EB0E041FFA83FEB4FBF9F309FB13443A
:100D88004EEA044403FB0CFCA44508D93C1903F1C2
:100D9800FF3E80F08280A4457FD9023B3C4443EA71
:100DA8000040A4EB0C04A0FB02EC64457346E1464A
:100DB80062D35FD05DB1B8EB030264EB090404FAB7
:100DC80006F622FA01F31E43CC40C5E9006400216F
:100DD8004FE7B1FBF2FC010C41EA0E4180B240EA58
:100DE80001423B4638463C46B846BE462026B1FB43
:100DF800F7F1A2EB080241EA0C4166E7014618E761
:100E080010462CE7C6F120022EFA02F3B740B14093
:100E180020FA02F24FEA174E0A43B3FBFEF8BCB2BF
:100E28000EFB1833110C41EA034108FB04F9B040EA
:100E380089454FEA104380B23ED9791808F1FF3C42
:100E480001D289451FD8A1EB0901B1FBFEF909FBC5
:100E580004F80EFB191192B242EA0142424529D226
:100E6800BA1809F1FF31C4D24245C2D2A9F1020130
:100E78003A44BEE7F0459DD2BEEB02036CEB070C8B
:100E88000138E14696E7A7EB09094944A8F1020CA5
:100E9800B1FBFEF909FB04F8DBE773467FE7504630
:100EA80066E70846FDE63B44023A33E7ACF1020C3C
:100EB8003B441CE749469CE7A1EB0901C446B1FB4A
:100EC800FEF909FB04F8C4E7704700BF80B485B099
:100ED80000AF78604FF0B043DA6C4FF0B0417B68F8
:100EE8001343CB644FF0B043DA6C7B681340FB606C
:100EF800FB6800BF1437BD4680BC704780B485B01E
:100F080000AF78604FF0B0431A6E4FF0B0417B6885
:100F180013430B664FF0B0431A6E7B681340FB60B7
:100F2800FB6800BF1437BD4680BC704780B483B0EF
:100F380000AF78604FF0B0431A6E7B68DB434FF028
:100F4800B04113400B6600BF0C37BD4680BC7047EC
:100F580080B500AF234B244A1A60224B4FF0004261
:100F68005A60204B00229A601E4B0022DA601D4B0B
:100F780000221A611B4B04225A611A4B00221A766E
:100F8800184B00225A76174B00229A76154B0122ED
:100F9800DA61144B002283F82020124B00225A6297
:100FA800104B00229A620F4B002283F82C200D4B25
:100FB8004FF480521A630B4B07225A63094B0722DE
:100FC8009A63084B002283F83C20064B0022DA641F
:100FD800044802F091FA0346002B01D000F05CFEB1
:100FE80000BF80BD640100200024014080B588B0A6
:100FF80000AF786007F10C0300221A605A609A600B
:10100800DA601A617B681B680D4A934213D14FF46A
:101018000070FFF773FF0220FFF758FF46F218032E
:10102800FB6003233B6100237B6107F10C03194636
:10103800044804F061F800BF2037BD4680BD00BFFA
:10104800002401400004004880B582B000AF7860F9
:101058007B681B68074A934208D14FF40070FFF77A
:1010680065FF46F21801044804F0A6F900BF0837E6
:10107800BD4680BD002401400004004880B400AF94
:10108800034B044A1A6000BFBD4680BC704700BFCE
:10109800640100200024014080B582B000AF002325
:1010A8003B8000237B6000F069F803467B802D4875
:1010B80000F026F978602C4B1A882C4B1B889A4232
:1010C80026D0294B1A88294B1B889A421CD07B882A
:1010D8007A6802FB03F39B08254AA2FB03235B09FA
:1010E8001A46224B1B88D31A642203FB02F21E4BBA
:1010F8001B8819461D4B1B88CB1A92FBF3F39BB236
:101108001E339BB21BB201E047F6FF733B801DE024
:101118007B887A6803FB02F2164BA3FB0213D21AF0
:1011280052081344DB0A4FF47A7202FB03F3A3F567
:101138003923A3F50C63104A82FB03129212DB17C2
:10114800D31A9BB21E339BB21BB23B803B881BB2A7
:101158001B021BB23B803B881BB218460837BD46B2
:1011680080BD00BF001000B0C875FF1FA875FF1F25
:101178009F00EE0901011000AD8BDB6880B582B0DD
:1011880000AF0023FB8000233B60134800F0B8F851
:1011980038603B68002B02D10023FB8016E00F4B20
:1011A8001B884FF6FF7293420BD00C4B1B881A46D4
:1011B80040F6E44303FB02F23B68B2FBF3F3FB8027
:1011C80004E0074A3B68B2FBF3F3FB80FB88184650
:1011D8000837BD4680BD00BF002000B4AA75FF1FB8
:1011E800D8084C0080B582B000AF0023FB800023F4
:1011F8003B60012000F084F80346FB80FB8840F642
:10120800E44202FB03F31A46064BA3FB0213D21A6D
:1012180052081344DB0A3B603B689BB21846083708
:10122800BD4680BD0101100080B582B000AF00232B
:10123800FB8000233B600C4800F062F80346FB800B
:10124800FB8840F6E44202FB03F31A46074BA3FB74
:101258000213D21A52081344DB0A3B603B689BB264
:1012680018460837BD4680BD020000040101100081
:1012780080B582B000AF0023FB8000233B600C48A0
:1012880000F03EF80346FB80FB8840F6E44202FB90
:1012980003F31A46074BA3FB0213D21A520813444E
:1012A800DB0A3B603B689BB218460837BD4680BDE9
:1012B800040000080101100080B582B000AF0023CF
:1012C800FB8000233B600C4800F01AF80346FB80C3
:1012D800FB8840F6E44202FB03F31A46074BA3FBE4
:1012E8000213D21A52081344DB0A3B603B689BB2D4
:1012F80018460837BD4680BD0800000C01011000E3
:1013080080B586B000AF786000237B6107F10803E1
:1013180000221A605A609A60FFF71AFE1A4802F013
:101328000AFF0346002B01D000F0B6FC7B68BB60C7
:101338000023FB6000233B6107F1080319461248AC
:1013480002F016FC0346002B01D000F0A5FC0E4865
:1013580002F0F2FA0346002B01D000F09DFC4FF09A
:10136800FF31094802F060FB074802F02BFB0648F2
:1013780002F0F1FB7861044802F052FA7B691846E2
:101388001837BD4680BD00BF6401002080B485B019
:1013980000AF78604FF0B0439A6C4FF0B0417B6873
:1013A80013438B644FF0B0439A6C7B681340FB6027
:1013B800FB6800BF1437BD4680BC704780B500AFDE
:1013C8000420FFF7E3FF0120FFF7E0FF00220221DE
:1013D8000B2003F056F80B2003F06DF800220021D3
:1013E8000C2003F04EF80C2003F065F800BF80BD18
:1013F80080B586B000AFF860B9607A60FF23FB75EE
:10140800FB68B3F1006F11D30B4B1B689A020B4BAF
:10141800134003F10063013BFA68934206D37A68EC
:10142800B968F86800F05AF80346FB7597F9173061
:1014380018461837BD4680BDE075FF1F00FCFF0346
:1014480080B586B000AFF860B9607A60FF23FB759D
:10145800BB68B3F1006F11D30B4B1B689A020B4B9F
:10146800134003F10063013BBA68934206D37A68DC
:10147800B968F86800F03AF90346FB7597F9173030
:1014880018461837BD4680BDE075FF1F00FCFF03F6
:1014980080B584B000AF78603960FF23FB737B6848
:1014A800B3F1006F10D30B4B1B689A020A4B134021
:1014B80003F10063013B7A68934205D33968786881
:1014C80000F032F90346FB7397F90F3018461037CE
:1014D800BD4680BDE075FF1F00FCFF0380B590B0DE
:1014E80000AFF860B9607A60002387F83F30FB6886
:1014F800BB63BB687B637B683B63FB68002B0CD0DA
:10150800BB68002B09D07B6803F00703002B04D1CC
:10151800FB6803F00703002B02D06FF00503DAE045
:1015280000F092F9034687F83F3097F93F30002BD7
:1015380040F0CF8003F00AFC0346002B40F0C68041
:10154800BB6B03F17842664B1B689902654B0B40F5
:10155800B2FBF3F101FB03F3D31ADB0ABB61BA6BED
:101568007B68134403F17843013B5D4A126891029A
:101578005C4A0A40B3FBF2F101FB02F29B1ADA0A59
:10158800BB69D31A01337B617B69012B05D9BB6B1E
:10159800C3F30A03C3F500633B63BB69FB6289E0DD
:1015A800FB6A03F58033DB023B61396BF86800F0B6
:1015B80025F90346002B31D04B4B1B68002B03D178
:1015C800FA2387F83F307EE0474B1B6839694FF4B0
:1015D8000062184600F08AF8434B1A68BB6BC3F3E5
:1015E8000A031344796B3A6B92B218461AF072FAEE
:1015F8003B694FF40061184600F096F80346002B4B
:1016080003D0FE2387F83F305DE03B697B62364BB1
:101618001B683B624FF40063FB6105E0BB6B7B62B8
:101628007B6B3B623B6BFB610023BB6226E03A6A43
:10163800BB6A1344D3E90023796A012003F042FB13
:101648000346002B13D17B6AD3E900013A6ABB6ACF
:101658001344D3E90023994208BF904203D0FC23E6
:1016680087F83F300EE07B6A08337B6203E0FC2397
:1016780087F83F3006E0BB6A0833BB62BA6AFB6989
:101688009A42D4D397F93F30002B1BD1BA6B3B6BEE
:101698001344BB637A6B3B6B13447B637A683B6B85
:1016A800D31AB3F5006F28BF4FF400633B63FB6A9E
:1016B8000133FB62BA697B691344FA6A9A42FFF400
:1016C8006FAF00E000BF03F063FB02E0FB2387F885
:1016D8003F3097F93F3018464037BD4680BD00BFC0
:1016E800E075FF1F00FCFF03C801002080B586B02D
:1016F80000AFF860B9607A600023FB75FB68002BC7
:1017080002D0BB68002B02D16FF0050308E07B68AC
:101718009BB21A46B968F8681AF0DCF997F91730DD
:1017280018461837BD4680BD80B588B000AF7860D0
:1017380039600023FB770123BB7700237B617B683B
:10174800BB617B68002B02D16FF005034EE000F00F
:101758007BF80346FB7797F91F30002B44D103F041
:10176800F5FA0346002B3DD10223BB60BB6903F1A8
:101778007842204B1B6899021F4B0B40B2FBF3F1D8
:1017880001FB03F3D31ADB0AFB60BA693B68134415
:1017980003F17843013B174A12689102164A0A403E
:1017A800B3FBF2F101FB02F29B1ADA0AFB68D31AC7
:1017B80001333B6107F1140207F10803114618468B
:1017C80003F0C6FB0346BB77BB7F002B07D0BB7F6C
:1017D800022B01D1012301E06FF00103FB7703F035
:1017E800D7FA01E0FB23FB7797F91F30184620371B
:1017F800BD4680BDE075FF1F00FCFF0380B485B0C7
:1018080000AF786039600023FB600023BB6011E003
:101818007B68D3E90023B3F1FF3F08BFB2F1FF3F74
:1018280002D00123FB6009E07B6808337B60BB685A
:101838000833BB60BA683B689A42E9D3FB6818462C
:101848001437BD4680BC704780B582B000AFFB231B
:10185800FB7103F07BFA0346002B10D10B4B9B69FD
:101868000A4A43F040439361084B4CF2FA321A613A
:1018780003F08EFA0346002B01D10023FB7197F980
:10188800073018460837BD4680BD00BF00400058E5
:1018980080B485B000AF78604FF0B043DA6C4FF099
:1018A800B0417B681343CB644FF0B043DA6C7B687C
:1018B8001340FB60FB6800BF1437BD4680BC70470F
:1018C80080B586B000AF3B1D00221A605A609A604E
:1018D800DA601A610120FFF7DBFF0220FFF7D8FF6B
:1018E8000420FFF7D5FF8020FFF7D2FF002248F23F
:1018F80031014FF0904003F02DFE00224FF40041DB
:101908003C4803F027FE012202213B4803F022FE57
:1019180000220121384803F01DFE47F6C2137B6000
:101928000323BB600023FB603B1D19464FF090402A
:1019380003F0E2FB48F230037B600123BB60002325
:10194800FB6003233B613B1D19464FF0904003F0B9
:10195800D3FB4FF400437B600123BB600023FB6093
:1019680003233B613B1D1946224803F0C5FB41F6A2
:1019780026737B600323BB600023FB603B1D194675
:101988001C4803F0B9FB42F27C037B600323BB6075
:101998000023FB603B1D1946174803F0ADFB0123EC
:1019A8007B600123BB600023FB6000233B613B1D80
:1019B80019464FF0904003F09FFB03237B600123FF
:1019C800BB600023FB6000233B613B1D19460A48AE
:1019D80003F092FB08237B600323BB600023FB60BA
:1019E8003B1D1946054803F087FB00BF1837BD4665
:1019F80080BD00BF0004004800080048001C0048E3
:101A080080B485B000AF78604FF0B043DA6C4FF027
:101A1800B0417B681343CB644FF0B043DA6C7B680A
:101A28001340FB60FB6800BF1437BD4680BC70479D
:101A380080B485B000AF78604FF0B0439A6D4FF036
:101A4800B0417B6813438B654FF0B0439A6D7B6858
:101A58001340FB60FB6800BF1437BD4680BC70476D
:101A680080B500AF1B4B1C4A1A601A4B1B4A5A60C0
:101A7800184B88229A60174B0122DA60154B002216
:101A88001A61144B00225A61124B00229A61114BC1
:101A98000022DA610F4B00221A620E4803F071FD32
:101AA8000346002B01D000F0F7F80021094804F0A4
:101AB800B3FA0346002B01D000F0EEF800210548E8
:101AC80004F0F4FA0346002B01D000F0E5F800BF5B
:101AD80080BD00BFCC01002000540040885D80100C
:101AE80080B596B000AF786007F1440300221A6011
:101AF8005A609A60DA601A6107F10C0338220021F3
:101B080018461BF043FA7B681B68214A93423AD176
:101B18004023FB604FF440333B6207F10C03184647
:101B280005F080FD0346002B01D000F0B5F8022037
:101B3800FFF766FF0120FFF763FF80237B64122312
:101B4800BB640023FB6400233B6504237B6507F12A
:101B5800440319460F4803F0CFFA4FF400737B642F
:101B68001223BB640023FB6400233B6504237B65CD
:101B780007F1440319464FF0904003F0BDFA4FF4C3
:101B88000010FFF755FF00BF5837BD4680BD00BFA6
:101B9800005400400004004880B483B000AF78606F
:101BA8004FF0B043D3F8903023F018024FF0B04113
:101BB8007B681343C1F8903000BF0C37BD4680BC2A
:101BC800704780B500AF01F0A9FA00F00BF8FFF7F5
:101BD80077FE09F0D1F800F01BFFFFF741FF09F08D
:101BE800D3F8FCE780B59AB000AF07F1200348228C
:101BF800002118461BF0CAF907F1080300221A60F1
:101C08005A609A60DA601A615A6104F09BFA0020FF
:101C1800FFF7C2FF1F4B1B6823F4C0631D4A43F440
:101C2800007313601B4B1B6803F4C0637B607B6805
:101C380024233B628123FB6201233B6400237B64F2
:101C4800B023BB640023FB6407F12003184604F0AB
:101C5800C5FD0346002B01D000F01EF84F23BB60E2
:101C68000023FB6000233B6100237B610023BB61F1
:101C78000023FB6107F108030221184605F030F93B
:101C88000346002B01D000F007F800BF6837BD46B7
:101C980080BD00BF0004005880B400AF72B600BF1A
:101CA80000BFFDE780B400AF4FF0B043D3F89030E9
:101CB8004FF0B04243F40043C2F8903000BFBD4635
:101CC80080BC704780B485B000AF78604FF0B043F7
:101CD8009A6D4FF0B0417B6813438B654FF0B0436A
:101CE8009A6D7B681340FB60FB6800BF1437BD46E4
:101CF80080BC704780B58CB000AF3B1D2C22002102
:101D080018461BF043F9224B224A1A60204B1F2227
:101D18009A601F4B00221A611D4B00225A611C4B0E
:101D280000229A611A4B4FF08042DA61184B002268
:101D38001A62174B4FF480725A62154805F08CFDF1
:101D48000346002B01D0FFF7A7FF114806F082F8E1
:101D58000346002B01D0FFF79FFF00233B620023BF
:101D6800BB600023BB614FF00053FB614FF48073ED
:101D7800FB623B1D00221946054805F0EFFD0346AE
:101D8800002B01D0FFF788FF00BF3037BD4680BD6C
:101D9800200200200028004080B590B000AF786095
:101DA80007F108033822002118461BF0EFF87B687A
:101DB8001B68164A934225D14FF48033BB604FF419
:101DC8008073FB6307F10803184605F02BFC0346F4
:101DD800002B01D0FFF760FFFFF764FF4FF480602E
:101DE800FFF770FF00220021022002F04AFB0220C8
:101DF80002F061FB002200212A2002F042FB2A2087
:101E080002F059FB00BF4037BD4680BD00280040A6
:101E180080B400AF034B0122C3F8882000BFBD4641
:101E280080BC70470004005880B400AF00BFBD46B6
:101E380080BC704780B400AF00BFBD4680BC70470F
:101E480080B500AF01F08AF9FFF7E2FF012004F046
:101E58000BFA00BF80BD80B500AF01F08DF901F02D
:101E68000DF800BF80BD80B500AF01F077F9012102
:101E7800002004F075F900BF80BD80B500AF01F007
:101E88007BF900BF80BD80B400AF00BFBD4680BCF9
:101E9800704780B400AF00BFFDE780B400AF00BF5B
:101EA800FDE780B400AF00BFFDE780B400AF00BF1E
:101EB800FDE780B400AF00BFFDE780B400AF00BF0E
:101EC800BD4680BC704780B400AF00BFBD4680BC33
:101ED800704780B400AF00BFBD4680BC704780B477
:101EE80000AF00BFBD4680BC7047000080B500AFA2
:101EF800024805F0EBFF00BF80BD00BF20020020B4
:101F080080B500AF024802F06DFD00BF80BD00BF84
:101F18009403002080B500AF024802F063FD00BFC3
:101F280080BD00BFF403002080B500AF024806F072
:101F380027FE00BF80BD00BF6C02002080B500AF47
:101F4800024806F01DFE00BF80BD00BF0003002050
:101F580080B500AF024805F069FE00BF80BD00BF34
:101F68002002002080B500AF024806F01DFB00BF2C
:101F780080BD00BF5802002080B485B000AF7860F3
:101F88004FF0B0435A6E4FF0B0417B6813434B6635
:101F98004FF0B0435A6E7B681340FB60FB6800BF8C
:101FA8001437BD4680BC704780B500AF064B082289
:101FB8001A60054806F076F80346002B01D0FFF7B3
:101FC8006BFE00BF80BD00BF5802002080B582B004
:101FD80000AF78600120FFF7CFFF002200213220F8
:101FE80002F04FFA322002F066FA00BF0837BD4609
:101FF80080BD80B483B000AF78604FF0B0439B6879
:1020080023F400424FF0B0417B6813438B6000BF5C
:102018000C37BD4680BC704780B400AF024B1B68CC
:102028001846BD4680BC70478075FF1F80B400AF5E
:10203800034B1B68DBB21846BD4680BC704700BF27
:102048008475FF1F80B400AF034B1B681B0A18463A
:10205800BD4680BC704700BF8475FF1F80B58EB039
:1020680002AF07F10C0300221A605A601A813B463E
:1020780000221A605A601A810023FB620023BB62A7
:1020880000237B6200233B620023FB610023BB61CA
:10209800FD233B7307F10C020A23009301238821D7
:1020A8001E4803F009FB0A2000F0B0F93A460A235B
:1020B800009306238921194803F016FC3B781B027C
:1020C8007A781344FB62BB78BB62FB781B023A79CF
:1020D80013447B627B793B62FB6AAF2202FB03F30A
:1020E8000F4AA2FB0323DB0B2D3BFB617A6A1346E5
:1020F8005B019B1A9B001344094AA2FB0323DB0BD9
:10210800063BBB61FB699BB21B029AB2BB699BB2DF
:1021180013439BB218463037BD4680BDCC01002022
:102128000180008080B500AF0020FFF762FF1AF041
:10213800F7F90E4B01221A7000F074F91AF080FCBE
:102148000B481AF02BFD0B4B4FF400421A6102208A
:102158001AF032FDFEF792FF00F0A0F919F014FC16
:102168000121012019F050FC00BF80BD640200204D
:102178004D2300080040005880B500AF19F074FCEA
:1021880000BF80BD80B582B000AF0023FB71FEF7B1
:10219800F5FF0346BB80BB8840F6B832934202D9AC
:1021A800FE23FB7114E0BB88B3F5E16F02D2002374
:1021B800FB710DE0BB88A3F5E1631A461346DB010A
:1021C8009B1A5B001A46054BA3FB0223DB09FB7134
:1021D800FB7918460837BD4680BD00BFB5814E1B48
:1021E80080B588B000AF0023FB833B1D184600F084
:1021F80023F9BB681846FEF78DFC0346FB83B7F945
:102208001E3018462037BD4680BD90B587B000AF58
:10221800786000237B61FFF7FFFE78617B69B3F18B
:10222800FF3F38D100F0B6FF044600F0C7FF034671
:1022380023443B6100F0B8FFF8603B691A0E7B68E5
:102248000733D2B21A703B691A0C7B680633D2B2D4
:102258001A703B691A0A7B680533D2B21A707B6818
:1022680004333A69D2B21A70FB681A0E7B680333DA
:10227800D2B21A70FB681A0C7B680233D2B21A7099
:10228800FB681A0A7B680133D2B21A70FB68DAB2AB
:102298007B681A7031E07B6807337A69D2B21A70AA
:1022A8007B691A0A7B680633D2B21A707B691A0CEA
:1022B8007B680533D2B21A707B691A0E7B680433C7
:1022C800D2B21A70FFF7B2FE78617B6803337A697D
:1022D800D2B21A70FFF7B6FE78617B6802337A696A
:1022E800D2B21A707B691A0A7B680133D2B21A70AB
:1022F8007B691B0CDAB27B681A7000BF1C37BD46BD
:1023080090BD90B583B000AF7860FFF785FE0246B8
:102318007B681A607B681B68B3F1FF3F0DD100F042
:1023280039FF044600F040FF03465C4000F046FFDA
:10233800034684EA03027B681A6000BF0C37BD4677
:1023480090BD000080B586B002AF7860396007F1B3
:102358000803184619F098FCBB68B7F90C200092DE
:10236800074A1021786800F01DF87868FDF700FF2B
:1023780003469AB23B681A8000BF1037BD4680BD3D
:1023880008D1010880B500AF0121022019F00CFB2B
:1023980000BF80BD80B500AF0021022019F004FB0A
:1023A80000BF80BD0CB480B584B000AF78603960E0
:1023B80007F11C03FB603968FB68BA69786819F093
:1023C800CFFD00BF1037BD46BDE8804002B0704762
:1023D80080B483B000AF7860002318460C37BD4640
:1023E80080BC704780B582B000AF00237B60064B8D
:1023F8001B78002B02D000F01DF978607B68184626
:102408000837BD4680BD00BF6402002080B582B099
:1024180000AF78607B68184600F093F900BF083772
:10242800BD4680BD80B500AF00F0D2FE00F0D6FEFC
:1024380000F0DAFE00BF80BD80B586B000AF7860DE
:10244800114B7B61114B3B61114BFB60FEF724FE86
:1024580003461B121BB21846FEF7B8F903463B6148
:102468007B687A699A607B683A695A607B68FA681F
:102478001A607B68074ADA607B68074A1A6100239A
:1024880018461837BD4680BD0000484200009041FC
:1024980000007A440D093E00AB03050080B483B008
:1024A80000AF00237B60002318460C37BD4680BC74
:1024B800704780B400AF00BFBD4680BC704780B491
:1024C80083B000AF78607B689B6818460C37BD46C0
:1024D80080BC704780B582B000AF0023FB71144BFD
:1024E8001B7883F00103DBB2002B1BD0114B4FF09C
:1024F800FF321A63FFF7FEFB00F056F84FF48071C5
:102508000C4805F037FB0B4B4FF0FF321A630948B4
:1025180005F06EFC002000F0D3F900F05FF8044BE2
:1025280001221A70FB7918460837BD4680BD00BFE6
:10253800650200202002002080B58EB000AF7860D0
:10254800002387F8373007F108032C2200211846AA
:102558001AF01CFD00F028F8114B1B687A68134428
:102568007B6000237B627B68DB43FB600023FB61AD
:102578004FF000533B624FF480733B6307F108034D
:1025880001221946074805F0E9F90346002B01D056
:10259800FFF782FB97F8373018463837BD4680BDBD
:1025A800680200202002002080B582B000AF00231E
:1025B800FB71084B0122DA654FF48071064805F07B
:1025C800D9FA054B4FF0FF321A63FB7918460837E2
:1025D800BD4680BD002800402002002080B500AF25
:1025E80000F08EF90346034A1360024B1B68184635
:1025F80080BD00BF6802002080B400AF024B1B689A
:102608001846BD4680BC70476802002080B582B07D
:1026180000AF00237B6000F073F90246044B1B688F
:10262800D31A7B607B6818460837BD4680BD00BF5B
:102638006802002080B582B000AF00237B60064BA3
:102648001B78002B02D000F05BF978607B68184695
:102658000837BD4680BD00BF6502002080B483B046
:1026680000AF00237B6003237B607B6818460C3730
:10267800BD4680BC7047B0B584B000AF786000211B
:10268800F960796800200A460346950D94024FF4D4
:102698007A724FF0000320462946FEF781FA024677
:1026A8000B461346FB60FB6818461037BD46B0BDA5
:1026B8002DE9B00F85B000AF78600021F960796826
:1026C80000200C460546204629464FF0000A4FF0E8
:1026D800000B4FEA411B4BEAD06B4FEA401A5046B9
:1026E8005946021B61EB05034FF000004FF0000153
:1026F800990041EA9271900002460B4612EB0408D9
:1027080043EB05094FF000024FF000034FEAC903FD
:1027180043EA58734FEAC8029046994640464946EC
:102728004FF000024FF00003820A42EA81528B0AFE
:102738001346FB60FB6818461437BD46BDE8B00F6A
:10274800704780B584B000AF78607868FFF793FF72
:10275800F86000F0D5F8B86000E000BF00F0D0F8ED
:102768000246BB68D31AFA689A42F6D800BF00BF7F
:102778001037BD4680BD80B582B000AF78601AF0D2
:102788001DF800BF0837BD4680BD80B584B000AFD6
:10279800786000F0A5F8F860FB680133184600F08F
:1027A8008FF800BF1037BD4680BD2DE9B04F8CB003
:1027B80000AF78610023FB6200F0A2F8B86200F075
:1027C8008FF878627B6A0022BB60FA604FF00002E3
:1027D8004FF00003B9680B000022B96A00200C46CC
:1027E800054612EB040843EB0509C7E90689D7E952
:1027F80006014FF000024FF00003820A42EA8152BC
:102808008B0A1346FB62BB6900223B607A603B6817
:10281800C3F3090A4FF0000BC7E906ABBB691846BA
:10282800FFF746FF03469AB27B691A80FB6A18468F
:102838003037BD46BDE8B08F80B582B000AF786054
:102848007A680021034805F065FB00BF0837BD46DC
:1028580080BD00BF2002002080B582B000AF786044
:102868007A680121034805F055FB00BF0837BD46CB
:1028780080BD00BF2002002080B582B000AF0023D9
:102888007B600021044805F05DFB78607B68184692
:102898000837BD4680BD00BF2002002080B582B049
:1028A80000AF00237B600121044805F04BFB7860F2
:1028B8007B6818460837BD4680BD00BF200200204F
:1028C80080B582B000AF78607A680221034805F0CD
:1028D80021FB00BF0837BD4680BD00BF2002002095
:1028E80080B582B000AF0221044805F02BFB786068
:1028F8007B6818460837BD4680BD00BF200200200F
:1029080080B582B000AF0B48FFF7D9FD786003E0CF
:102918000848FFF7D4FD78600648FFF7D0FD024667
:102928007B689342F4D17B68DB4318460837BD4681
:1029380080BD00BF0028004080B485B000AF78603B
:102948004FF0B043DA6C4FF0B0417B681343CB646F
:102958004FF0B043DA6C7B681340FB60FB6800BF44
:102968001437BD4680BC704780B485B000AF78602E
:102978004FF0B0439A6D4FF0B0417B6813438B65BD
:102988004FF0B0439A6D7B681340FB60FB6800BF53
:102998001437BD4680BC704780B483B000AF786000
:1029A8004FF0B0439A6D7B68DB434FF0B041134062
:1029B8008B6500BF0C37BD4680BC704780B485B0BE
:1029C80000AF78604FF0B0431A6E4FF0B0417B68AB
:1029D80013430B664FF0B0431A6E7B681340FB60DD
:1029E800FB6800BF1437BD4680BC704780B483B015
:1029F80000AF78604FF0B0431A6E7B68DB434FF04E
:102A0800B04113400B6600BF0C37BD4680BC704711
:102A180080B500AF224B234A1A60214B4FF4E132B4
:102A28005A601F4B00229A601D4B0022DA601C4B33
:102A380000221A611A4B0C225A61194B00229A6122
:102A4800174B0022DA61164B00221A62144B00223F
:102A58005A62134B00229A62114805F074FF03462C
:102A6800002B01D0FFF718F900210D4808F09AF85B
:102A78000346002B01D0FFF70FF90021084808F0A2
:102A8800CFF80346002B01D0FFF706F9044808F0F9
:102A980051F80346002B01D0FFF7FEF800BF80BDB8
:102AA800000300200044004080B596B000AF786075
:102AB80007F1440300221A605A609A60DA601A61CA
:102AC80007F10C033822002118461AF05FFA7B68D8
:102AD8001B68684A93426CD10123FB604FF4403372
:102AE8003B6107F10C03184604F09CFD0346002BDC
:102AF80001D0FFF7D1F84FF48040FFF75FFF0120C6
:102B0800FFF71AFF0220FFF717FF4FF480637B647B
:102B18000223BB640023FB6403233B6507237B6517
:102B280007F1440319464FF0904002F0E5FA4023BC
:102B38007B640223BB640023FB6403233B650723F8
:102B48007B6507F1440319464B4802F0D5FA4B4B15
:102B58004B4A1A60494B12225A60484B10229A601D
:102B6800464B0022DA60454B80221A61434B002213
:102B78005A61424B00229A61404B0022DA613F4B76
:102B880000221A623D4801F0B3FC0346002B01D035
:102B9800FFF782F87B68394ADA67384A7B689362BC
:102BA80000220221242001F06CFC242001F083FC87
:102BB8005CE07B681B68334A934257D10223FB6071
:102BC8004FF440237B6107F10C03184604F02AFDFB
:102BD8000346002B01D0FFF75FF84FF40030FFF7F2
:102BE800C3FE0120FFF7A8FE0C237B640223BB640D
:102BF8000023FB6400233B6507237B6507F144033F
:102C080019464FF0904002F077FA1F4B1F4A1A609E
:102C18001D4B14225A601C4B10229A601A4B00223A
:102C2800DA60194B80221A61174B00225A61164B41
:102C380000229A61144B0022DA61134B00221A62B7
:102C4800114801F055FC0346002B01D0FFF724F88A
:102C58007B680D4ADA670C4A7B6893620022002180
:102C6800252001F00EFC252001F025FC00BF583777
:102C7800BD4680BD00380140000400489403002090
:102C88000800024000440040F40300201C000240F9
:102C980080B582B000AF78607B681B68194A9342A0
:102CA80016D14FF48040FFF7A1FE4FF480614FF03A
:102CB800904002F081FB4021134802F07DFB7B68C5
:102CC800DB6F184601F0BCFC242001F002FC15E083
:102CD8007B681B680D4A934210D14FF40030FFF710
:102CE8005BFE0C214FF0904002F066FB7B68DB6FC7
:102CF800184601F0A5FC252001F0EBFB00BF0837C2
:102D0800BD4680BD00380140000400480044004032
:102D180080B483B000AF78604FF0B0439A6B4FF047
:102D2800B0417B6813438B6300BF0C37BD4680BC42
:102D3800704780B483B000AF78604FF0B0439A6BAF
:102D48007B68DB434FF0B04113408B6300BF0C3707
:102D5800BD4680BC7047000080B483B000AF786087
:102D6800064BD3F8802005497B681343C1F88030AF
:102D780000BF0C37BD4680BC704700BF0008005834
:102D880080B582B000AF7860074A7B681360FEF7B1
:102D980015FBFFF73DFE4FF00060FFF7DDFF002356
:102DA80018460837BD4680BD5804002080B500AFDE
:102DB8004FF40030FFF7ACFF4FF40030FFF7B9FFD6
:102DC8000448FFF765FF0F2001F083FB0023184636
:102DD80080BD00BF0003002080B582B000AF7860DE
:102DE8000B467B807B881A467968044805F048FEC4
:102DF800002318460837BD4680BD00BF00030020E9
:102E080080B584B000AF7860194A7B6813604FF4CE
:102E18000013BB6007F1080393E80600154807F0A4
:102E2800FCFD00BF134B1B68DB6903F48033B3F56B
:102E3800803FF7D000BF0F4B1B68DB6903F48003AA
:102E4800B3F5800FF7D10B4B1B689A68094B1B68C9
:102E580042F480029A60074807F03AFE01220649C8
:102E6800044805F0C1FD002318461037BD4680BD53
:102E78005C040020000300205404002080B500AF4B
:102E8800084805F060FD0346002B01D0FEF704FF5B
:102E9800054801F02DFB0346002B01D0FEF7FCFE90
:102EA80000BF80BD00030020F403002080B582B07D
:102EB80000AF78607B681B68054A934203D1054BD5
:102EC8001B680020984700BF0837BD4680BD00BF7B
:102ED800004400405804002080B582B000AF7860FC
:102EE8007B681B680D4A934213D10D4B1B68002B5E
:102EF8000AD07B68D3F89030002B05D1084B1B68AB
:102F0800002201210748984701220649786805F000
:102F18006BFD00BF0837BD4680BD00BF00440040C0
:102F28005C040020540400200D488546FFF7C1FAD0
:102F38000C480D490D4A002302E0D458C45004330C
:102F4800C4188C42F9D30A4A0A4C002301E01360E2
:102F58000432A242FBD31AF021F8FEF732FEFEE754
:102F68000000012000000020480100204CE1010879
:102F78004801002050230020FEE780B586B000AF4E
:102F88003B1D00221A605A609A60DA601A611023A9
:102F98007B600123BB600023FB6003233B613B1D77
:102FA80019464FF0904002F0A7F820237B603B1DA4
:102FB80019464FF0904002F09FF8002220214FF070
:102FC800904002F0C7FA002210214FF0904002F022
:102FD800C1FA002318461837BD4680BD80B582B0B7
:102FE80000AF0346FB71FB79032B3FD801A252F8CF
:102FF80023F000BF0D3000082730000841300008DA
:103008005B300008002210214FF0904002F0A2FA35
:10301800002220214FF0904002F09CFA27E0012284
:1030280010214FF0904002F095FA002220214FF035
:10303800904002F08FFA1AE0012210214FF09040E0
:1030480002F088FA012220214FF0904002F082FA23
:103058000DE0002210214FF0904002F07BFA01228F
:1030680020214FF0904002F075FA00E000BF0023E5
:1030780018460837BD4680BD80B400AF0223184605
:10308800BD4680BC704780B400AF01231846BD46DA
:1030980080BC704780B400AF01231846BD4680BC91
:1030A800704780B485B000AF0346FB71FB79002BF5
:1030B80002D10F23FB6001E01623FB60FB68184672
:1030C8001437BD4680BC704780B400AF044B5B68C2
:1030D800034A23F00103536000BFBD4680BC70471C
:1030E800002004E080B400AF044B5B68034A23F07F
:1030F8000203536000BFBD4680BC7047002004E057
:1031080080B400AF044B5B68034A23F004035360A8
:1031180000BFBD4680BC7047002004E080B582B087
:1031280000AF0023FB71032001F0A0F904F09CF824
:103138000346094A13600F20FFF74AF90346002B9C
:1031480002D00123FB7101E0FEF79DFEFB791846D2
:103158000837BD4680BD00BF0000002080B400AF26
:10316800044B1B68034A23F00203136000BFBD46EB
:1031780080BC704710E000E080B400AF044B1B68CF
:10318800034A43F00203136000BFBD4680BC70478A
:1031980010E000E080B400AF024B1B681846BD4643
:1031A80080BC70479075FF1F80B400AF024B1B684E
:1031B8001846BD4680BC70479475FF1F80B400AFA9
:1031C800024B1B681846BD4680BC70479875FF1FA8
:1031D80080B500AFFFF778FF00BF80BD80B500AFB6
:1031E800FFF780FF00BF80BD80B500AFFFF788FF05
:1031F80000BF80BD80B483B000AF786039607B6861
:103208001B6823F0E0723B681A437B681A6000BFB2
:103218000C37BD4680BC704780B483B000AF78607F
:103228007B681B6803F0E07318460C37BD4680BC0A
:10323800704780B485B000AFF860B9607A60FB6809
:103248005A69BB6803F00403072101FA03F3DB435F
:103258001A40BB6803F00403796801FA03F31A43C0
:10326800FB685A6100BF1437BD4680BC704780B404
:1032780083B000AF786039607B685A693B6803F0B7
:103288000403072101FA03F31A403B6803F004031F
:1032980022FA03F318460C37BD4680BC704780B449
:1032A80083B000AF78607B68DB6803F44063002B71
:1032B80001D1012300E0002318460C37BD4680BC2D
:1032C800704780B485B000AFF860B9607A60FB6879
:1032D8009A6ABB6803F01F030F2101FA03F3DB436B
:1032E8001A407B689B0E03F00F01BB6803F01F03B5
:1032F80001FA03F31A43FB689A6200BF1437BD460C
:1033080080BC704780B483B000AF786039607B6858
:103318009A6A3B68C3F311031A437B689A6200BF39
:103328000C37BD4680BC704780B483B000AF78606E
:1033380039607B689A6A3B68C3F31103DB431A4020
:103348007B689A6200BF0C37BD4680BC704780B46A
:1033580085B000AFF860B9607A60FB685A69BB68ED
:103368001B02DB431A40BB6819027B680B4023F041
:103378007C4323F0FF031A43FB685A6100BF1437EC
:10338800BD4680BC704780B483B000AF78607B686E
:103398009B6823F0104323F0170343F080527B68A7
:1033A8009A6000BF0C37BD4680BC704780B483B0BC
:1033B80000AF78607B689B6823F0104323F0170305
:1033C8007A68936000BF0C37BD4680BC704780B4F4
:1033D80083B000AF78607B689B6803F08053B3F1DB
:1033E800805F01D1012300E0002318460C37BD4659
:1033F80080BC704780B483B000AF78607B689B68FE
:1034080023F0004323F0170343F001027B689A601E
:1034180000BF0C37BD4680BC704780B483B000AF96
:1034280078607B689B6823F0004323F0170343F020
:1034380002027B689A6000BF0C37BD4680BC7047AB
:1034480080B483B000AF78607B689B6803F00103A9
:10345800012B01D1012300E0002318460C37BD469B
:1034680080BC704780B483B000AF78607B689B688D
:1034780003F00203022B01D1012300E000231846C8
:103488000C37BD4680BC704780B483B000AF78600D
:103498007B689B6823F0004323F0170343F0040282
:1034A8007B689A6000BF0C37BD4680BC704780B40B
:1034B80083B000AF78607B689B6823F0004323F0FB
:1034C800170343F010027B689A6000BF0C37BD46B3
:1034D80080BC704780B483B000AF78607B689B681D
:1034E80003F00403042B01D1012300E00023184654
:1034F8000C37BD4680BC704780B588B000AF786097
:103508000023FB770023BB6100237B610023FB6062
:103518007B68002B01D101237EE17B681B69002BAE
:103528007B689B6D002B09D17868FDF75FFD7B6890
:103538000022DA657B68002283F854207B681B68C8
:103548001846FFF744FF0346002B15D17B681B681C
:103558001846FFF718FF9E4B1B689B099D4AA2FB64
:1035680003239B0901335B00FB6002E0FB68013B1E
:10357800FB60FB68002BF9D17B681B681846FFF7D6
:1035880026FF0346002B0DD17B689B6D43F010028C
:103598007B689A657B68DB6D43F001027B68DA65BE
:1035A8000123FB777B681B681846FFF793FF386198
:1035B8007B689B6D03F01003002B40F024813B696E
:1035C800002B40F020817B689B6D23F4817343F0CE
:1035D80002027B689A657B681B681846FFF730FF14
:1035E8000346002B40F0A7807B689A687B681B7EA7
:1035F8009B031A437B685B7EDB031A437B689B7ED5
:103608005B0313437A68126B002A02D04FF480528E
:1036180000E000221A437B68DB681A437B681B6959
:10362800002B04DA7B681B6923F0004301E04FF4A8
:1036380000131A437B6893F82C305B001343BA6974
:103648001343BB617B6893F82030012B14D17B684E
:103658009B7E002B04D1BB6943F48033BB610BE034
:103668007B689B6D43F020027B689A657B68DB6D05
:1036780043F001027B68DA657B685B6A002B09D03E
:103688007B685B6A03F4E0727B689B6A1343BA69E0
:103698001343BB617B681B68DB6823F4FE3323F4A8
:1036A800FF737A681268B9690B43D3607B685B68FB
:1036B80003F040427B68DB6C13437A6913437B61F8
:1036C8007B6893F83C30012B11D17B685B6803F071
:1036D80040427B681B6C1A437B685B6C1A437B68AF
:1036E8009B6C1A437B69134343F001037B617B683E
:1036F8001B681A69384B13407A68126879690B435A
:1037080013617B685B68B3F1404F14D07B685B68DA
:10371800B3F1804F0FD07B685B68B3F1004F0AD0DC
:103728002E4B1B6823F470127B685B6803F47013DC
:103738002A4913430B607B6818687B685B6B1A46E1
:103748000021FFF776FD7B6818687B689B6B1A463B
:103758002349FFF76EFD7B681B69002B08D17B6846
:103768001B689A6A7B681B6862F00F029A6217E00E
:103778007B681B69B3F5001F12D17B681B689B6AC5
:103788007B68DB69013B9B0003F01C036FF00F02B1
:1037980002FA03F17B681A6E7B681B680A439A6217
:1037A8007B681B6800211846FFF761FD02467B68AD
:1037B8005B6B9A4216D17B680022DA657B689B6D49
:1037C80023F0030343F001027B689A6523E000BFFE
:1037D80000000020632D3E0502FCFF1F0827014062
:1037E80004FFFF037B689B6D23F0120343F0100274
:1037F8007B689A657B68DB6D43F001027B68DA655C
:103808000123FB7707E07B689B6D43F010027B6820
:103818009A650123FB77FB7F18462037BD4680BD9C
:1038280080B584B000AF78607B68002B01D101239C
:103838007AE07B689B6D43F002027B689A65786842
:1038480000F0CEFA0346FB73FB7B002B0FD17868A0
:1038580000F092FB0346FB73FB7B002B02D17B68D5
:1038680001229A657B681B681846FFF79FFD7B68F5
:103878001B685B687A68126823F4677323F0030394
:1038880053607B681B6840F29F321A607B681B6834
:10389800D9687B681A68264B0B40D3607B681B6825
:1038A8005A697B681B6822F007025A617B681B68AB
:1038B8009B6A7B681B6800229A627B681B681A6A8D
:1038C8007B681B6802F0F0221A627B681B685A6AE0
:1038D8007B681B6802F0F0225A627B681B68DA6A10
:1038E8007B681B6802F0F022DA627B681B681A6941
:1038F8007B681B6822F040421A610E4B1B680D4A18
:1039080023F0FE7313607868FDF79EFB7B68002246
:103918001A667B680022DA657B6800229A657B68F4
:10392800002283F85420FB7B18461037BD4680BD23
:1039380000023E830827014080B584B000AF78605C
:103948007B681B681846FFF7C5FD0346002B32D17C
:103958007B6893F85430012B01D102232EE07B6859
:10396800012283F85420786800F080FA0346FB733C
:10397800FB7B002B1AD17B689B6D23F4706323F0CB
:10398800010343F480727B689A657B680022DA65DC
:103998007B681B681C221A607B68002283F854200D
:1039A8007B681B681846FFF76FFD06E07B680022FE
:1039B80083F8542001E00223FB73FB7B1846103781
:1039C800BD4680BD80B584B000AF78607B6893F851
:1039D8005430012B01D1022322E07B68012283F8B5
:1039E8005420786800F0FCF90346FB73FB7B002B3E
:1039F80011D1786800F0C0FA0346FB73FB7B002BFB
:103A080009D17B689B6D23F4807323F0010343F095
:103A180001027B689A657B68002283F85420FB7B4F
:103A280018461037BD4680BD80B584B000AF7860B9
:103A380039607B685B69082B02D10823FB6010E0C2
:103A48007B681B68DB6803F00103002B07D07B68E9
:103A58009B6D43F020027B689A65012377E004237D
:103A6800FB60FEF7BFFCB86021E03B68B3F1FF3FA5
:103A78001DD0FEF7B7FC0246BB68D31A3A689A42D3
:103A880002D33B68002B12D17B681B681A68FB685D
:103A98001340002B0BD17B689B6D43F004027B68BD
:103AA8009A657B68002283F8542003234FE07B68E3
:103AB8001B681A68FB681340002BD6D07B689B6D87
:103AC80043F400727B689A657B681B681846FFF7A9
:103AD800E6FB0346002B31D07B689B7E002B2DD163
:103AE8007B681B681B6803F00803082B26D17B68DA
:103AF8001B681846FFF7EEFC0346002B12D17B68C3
:103B08001B685A687B681B6822F00C025A607B6845
:103B18009B6D23F4807323F0010343F001027B685B
:103B28009A650BE07B689B6D43F020027B689A6581
:103B38007B68DB6D43F001027B68DA657B681B7E7E
:103B4800002B03D17B681B680C221A6000231846DF
:103B58001037BD4680BD80B483B000AF78607B6805
:103B68001B681B6C18460C37BD4680BC70470000AC
:103B780080B588B000AF786039600023FB770023F8
:103B8800BB607B681B69B3F1004F7B6893F85430C6
:103B9800012B01D1022310E17B68012283F8542014
:103BA8007B681B681846FFF795FC0346002B40F01E
:103BB800F7803B685B68022B00F0B1807B681B696B
:103BC800B3F1004F04D07B681B697E4A934208D149
:103BD8007B681A683B681B6819461046FFF792FB1A
:103BE80041E07B681A6E3B685B6803F01F030F2196
:103BF80001FA03F3DB431A403B681B68C3F3110364
:103C0800002B05D13B681B689B0E03F01F0311E0D6
:103C18003B681B683B613B6993FAA3F3FB60FB6855
:103C28007B617B69002B01D1202303E07B69B3FA18
:103C380083F3DBB23968496801F01F018B401A43EE
:103C48007B681A663B685B689B085A1C7B68DB6963
:103C58009A4208D87B6818683B6859683B681B68B3
:103C68001A46FFF72EFB7B6818683B6819683B68A3
:103C78009B681A46FFF76BFB3B681B68002B80F2BA
:103C880097805148FFF7C8FAB8613B681B684F4AEC
:103C9800934220D1BB6903F40003002B1BD1BB69FD
:103CA80043F4000319464848FFF7A4FA484B1B6839
:103CB8009B09484AA2FB03239B095A1C13465B0035
:103CC80013449B00BB6002E0BB68013BBB60BB6860
:103CD800002BF9D16CE03B681B683F4A93420CD13A
:103CE800BB6903F08073002B07D1BB6943F0807375
:103CF80019463548FFF77EFA5AE03B681B68374A91
:103D0800934255D1BB6903F48003002B50D1BB69A2
:103D180043F4800319462C48FFF76CFA48E07B68A7
:103D28001B69B3F1004F04D07B681B69254A934295
:103D380007D17B681A683B681B6819461046FFF76D
:103D4800F3FA3B681B68002B32DA1F48FFF764FA66
:103D5800B8613B681B681D4A934207D1BB6923F4CD
:103D6800000319461848FFF745FA21E03B681B682D
:103D7800194A934207D1BB6923F080731946124848
:103D8800FFF738FA14E03B681B68144A93420FD1D6
:103D9800BB6923F4800319460B48FFF72BFA07E0A9
:103DA8007B689B6D43F020027B689A650123FB7753
:103DB8007B68002283F85420FB7F18462037BD46D5
:103DC80080BD00BF0400008008270140001000B03B
:103DD80000000020632D3E05004000B8002000B41C
:103DE80080B584B000AF78607B681B681846FFF721
:103DF80071FB0346002B33D07B681B681846FFF71E
:103E080031FB0346002B04D17B681B681846FFF77B
:103E18004EFBFEF7E7FAF8601BE0FEF7E3FA02460E
:103E2800FB68D31A022B14D97B681B689B6803F0C4
:103E38000403002B0DD07B689B6D43F010027B6858
:103E48009A657B68DB6D43F001027B68DA650123C4
:103E580007E07B681B689B6803F00403002BDCD138
:103E6800002318461037BD4680BD000080B584B0D9
:103E780000AF78600023BB607B681B681846FFF7BB
:103E8800DFFA0346002B69D17B681B689A68364BBA
:103E98001340002B0DD07B689B6D43F010027B68AC
:103EA8009A657B68DB6D43F001027B68DA65012364
:103EB80055E07B681B681846FFF79CFA2B48FFF70C
:103EC800ABF9034603F40003002B0FD0284B1B6803
:103ED8009B09284AA2FB03239B090133BB6002E02C
:103EE800BB68013BBB60BB68002BF9D17B685B7E7C
:103EF800012B33D0FEF776FAF86028E07B681B6860
:103F08001846FFF79DFA0346002B04D17B681B680F
:103F18001846FFF76FFAFEF765FA0246FB68D31AF0
:103F2800022B14D97B681B681B6803F00103012B63
:103F38000DD07B689B6D43F010027B689A657B68A7
:103F4800DB6D43F001027B68DA65012307E07B68DB
:103F58001B681B6803F00103012BCFD1002318460F
:103F68001037BD4680BD00BF1700008008270140FC
:103F780000000020632D3E0580B584B000AF786056
:103F88007B681B681846FFF76DFAF8607B681B684A
:103F98001846FFF755FA0346002B47D0FB68002B5D
:103FA80044D17B681B689B6803F00503012B0CD187
:103FB8007B681B681846FFF730FA7B681B6803228A
:103FC8001A60FEF70FFAB86029E07B689B6D43F032
:103FD80010027B689A657B68DB6D43F001027B68A1
:103FE800DA65012323E0FEF7FDF90246BB68D31A20
:103FF800022B14D97B681B689B6803F00103002B14
:104008000DD07B689B6D43F010027B689A657B68D6
:10401800DB6D43F001027B68DA65012307E07B680A
:104028001B689B6803F00103002BDCD100231846B2
:104038001037BD4680BD80B483B000AF786039606A
:104048007B68D3F8B43023F07F023B681A437B685F
:10405800C3F8B42000BF0C37BD4680BC704780B49D
:1040680083B000AF78607B68D3F8B43003F07F0387
:1040780018460C37BD4680BC704780B483B000AF8B
:1040880078607B689B6823F0004323F0170343F0B4
:1040980001027B689A6000BF0C37BD4680BC704740
:1040A80080B483B000AF78607B689B6823F00043DE
:1040B80023F0170343F002027B689A6000BF0C37B5
:1040C800BD4680BC704780B483B000AF78607B6821
:1040D8009B6803F00103012B01D1012300E00023B9
:1040E80018460C37BD4680BC704780B483B000AF1B
:1040F80078607B689B6823F0004323F0170343F044
:1041080000427B689A6000BF0C37BD4680BC704790
:1041180080B483B000AF78607B689B6803F000438D
:10412800B3F1004F01D1012300E0002318460C37FA
:10413800BD4680BC704780B588B000AF786000236A
:10414800BB600023BB617B6893F85430012B01D11D
:104158000223B9E07B68012283F854207868FFF7CE
:104168000BFF0346FB757B681B681846FFF7ABFF20
:104178000346002B40F09D807B689B6D23F4817380
:1041880043F002027B689A657B681B68DA6848F22C
:10419800030313403B617B681B68DB687A6812681D
:1041A80023F4004323F00303D3600023FB612EE0D4
:1041B8007B681B681846FFF798FF14E0BB6801335B
:1041C800BB60BB68B3F52E3F0DD37B689B6D23F0B6
:1041D800120343F010027B689A657B68002283F81B
:1041E8005420012370E07B681B681846FFF790FF96
:1041F8000346002BE2D17B681B681846FFF72FFFA8
:104208000246BB691344BB61FB690133FB61FB696F
:10421800072BCDD9BA69FB69B2FBF3F3BB617B68A5
:104228001B681846FFF729FF7B681B68B9691846A1
:10423800FFF701FF7B681B681846FFF731FFFEF7A1
:10424800D1F8F8601CE0FEF7CDF80246FB68D31AF7
:10425800022B15D97B681B681846FFF734FF034605
:10426800002B0DD07B689B6D43F010027B689A652C
:104278007B68DB6D43F001027B68DA65012323E08C
:104288007B681B681846FFF71EFF0346002BDAD130
:104298007B681B68D9687B681B683A690A43DA60DF
:1042A8007B689B6D23F0030343F001027B689A65EA
:1042B80005E07B689B6D43F010027B689A657B681C
:1042C800002283F85420FB7D18462037BD4680BD68
:1042D80080B485B000AF78607B6803F00703FB60AB
:1042E8000C4BDB68BB60BA684FF6FF031340BB603A
:1042F800FB681A02BB68134343F0BF6343F40033FF
:10430800BB60044ABB68D36000BF1437BD4680BC9D
:10431800704700BF00ED00E080B400AF044BDB68DD
:104328001B0A03F007031846BD4680BC704700BF50
:1043380000ED00E080B483B000AF0346FB7197F94D
:104348000730002B0BDBFB7903F01F02064997F9B6
:1043580007305B09012000FA02F241F8232000BF70
:104368000C37BD4680BC704700E100E080B483B0E4
:1043780000AF0346FB7197F90730002B12DBFB797E
:1043880003F01F020A4997F907305B09012000FA78
:1043980002F2203341F82320BFF34F8F00BFBFF351
:1043A8006F8F00BF00BF0C37BD4680BC704700BF91
:1043B80000E100E080B483B000AF03463960FB71D0
:1043C80097F90730002B0ADB3B68DAB20C4997F9FA
:1043D80007301201D2B20B4483F800230AE03B688D
:1043E800DAB20849FB7903F00F03043B1201D2B299
:1043F8000B441A7600BF0C37BD4680BC704700BF1F
:1044080000E100E000ED00E080B489B000AFF860A2
:10441800B9607A60FB6803F00703FB61FB69C3F1CD
:104428000703042B28BF0423BB61FB690433062B55
:1044380002D9FB69033B00E000237B614FF0FF32A8
:10444800BB6902FA03F3DA43BB681A407B699A40F6
:104458004FF0FF317B6901FA03F3D9437B680B40C6
:10446800134318462437BD4680BC704780B582B0D8
:1044780000AF78607868FFF72BFF00BF0837BD46AC
:1044880080BD80B586B000AF0346B9607A60FB7323
:10449800FFF742FF78617A68B9687869FFF7B4FF77
:1044A800024697F90F3011461846FFF783FF00BF01
:1044B8001837BD4680BD80B582B000AF0346FB719A
:1044C80097F907301846FFF735FF00BF0837BD4694
:1044D80080BD80B582B000AF0346FB7197F9073005
:1044E8001846FFF743FF00BF0837BD4680BD0000F0
:1044F80080B582B000AF78607B68002B01D10123C2
:104508008EE07B681B681A46474B9A420FD87B6837
:104518001B681A46454B1344454AA2FB03231B0953
:104528009A007B685A647B68424A1A640EE07B688A
:104538001B681A46404B13443D4AA2FB03231B0940
:104548009A007B685A647B683C4A1A647B6802223A
:1045580083F825207B681B681B687A68126823F437
:10456800FF4323F0700313607B681B6819687B683E
:104578009A687B68DB681A437B681B691A437B6807
:104588005B691A437B689B691A437B68DB691A433A
:104598007B681B6A1A437B681B680A431A60786841
:1045A80000F024FB7B689B68B3F5804F02D17B68E1
:1045B80000225A607B685A687B689B6C02F07F0215
:1045C8001A607B68DB6C7A68126D5A607B685B687E
:1045D800002B10D07B685B68042B0CD8786800F03F
:1045E8004DFB7B685B6D00221A607B689B6D7A6867
:1045F800D26D5A6008E07B6800225A657B68002209
:104608009A657B680022DA657B680022DA637B683A
:10461800012283F825207B68002283F824200023C8
:1046280018460837BD4680BD07040240F8FFFDBFA5
:10463800CDCCCCCC00000240F8FBFDBF000402400A
:1046480080B582B000AF78607B68002B01D1012370
:104658007BE07B681B681A687B681B6822F0010294
:104668001A607B681B681A463A4B9A420FD87B68D7
:104678001B681A46384B1344384AA2FB03231B090C
:104688009A007B685A647B68354A1A640EE07B6836
:104698001B681A46334B1344304AA2FB03231B09F9
:1046A8009A007B685A647B682F4A1A647B681B6887
:1046B80000221A607B685B6C03F01C027B681B6C31
:1046C800012101FA02F25A60786800F08FFA7B68DB
:1046D8009B6C00221A607B68DB6C7A68126D5A60EA
:1046E8007B685B68002B0FD07B685B68042B0BD85A
:1046F800786800F0C3FA7B685B6D00221A607B68FB
:104708009B6D7A68D26D5A607B6800225A657B6817
:1047180000229A657B680022DA657B680022DA62EB
:104728007B6800221A637B6800225A637B68002238
:104738009A637B680022DA637B68002283F825206D
:104748007B68002283F82420002318460837BD46DA
:1047580080BD00BF07040240F8FFFDBFCDCCCCCC24
:1047680000000240F8FBFDBF0004024080B586B09F
:1047780000AFF860B9607A603B600023FB75FB68A6
:1047880093F82430012B01D1022369E0FB68012250
:1047980083F82420FB6893F82530DBB2012B55D130
:1047A800FB68022283F82520FB680022DA63FB6895
:1047B8001B681A68FB681B6822F001021A603B68D4
:1047C8007A68B968F86800F0D3F9FB681B6B002BAE
:1047D80008D0FB681B681A68FB681B6842F00E0269
:1047E8001A600FE0FB681B681A68FB681B6822F0F8
:1047F80004021A60FB681B681A68FB681B6842F0B1
:104808000A021A60FB689B6C1B6803F48033002B58
:1048180007D0FB689B6C1A68FB689B6C42F480723B
:104828001A60FB685B6D002B07D0FB685B6D1A682C
:10483800FB685B6D42F480721A60FB681B681A683B
:10484800FB681B6842F001021A6008E0FB688022DE
:10485800DA63FB68002283F824200123FB75FB7DC3
:1048680018461837BD4680BD80B483B000AF786065
:104878007B68002B01D101234FE07B6893F825303A
:10488800DBB2022B08D07B680422DA637B68002243
:1048980083F82420012340E07B681B681A687B6842
:1048A8001B6822F00E021A607B689B6C1A687B6892
:1048B8009B6C22F480721A607B681B681A687B689C
:1048C8001B6822F001021A607B685B6C03F01C0213
:1048D8007B681B6C012101FA02F25A607B68DB6C71
:1048E8007A68126D5A607B685B6D002B0CD07B6810
:1048F8005B6D1A687B685B6D22F480721A607B6856
:104908009B6D7A68D26D5A607B68012283F82520F6
:104918007B68002283F82420002318460C37BD4604
:1049280080BC704780B584B000AF78600023FB730B
:104938007B6893F82530DBB2022B05D07B68042214
:10494800DA630123FB7347E07B681B681A687B689E
:104958001B6822F00E021A607B681B681A687B6865
:104968001B6822F001021A607B689B6C1A687B68DE
:104978009B6C22F480721A607B685B6C03F01C02EB
:104988007B681B6C012101FA02F25A607B68DB6CC0
:104998007A68126D5A607B685B6D002B0CD07B685F
:1049A8005B6D1A687B685B6D22F480721A607B68A5
:1049B8009B6D7A68D26D5A607B68012283F8252046
:1049C8007B68002283F824207B689B6B002B03D034
:1049D8007B689B6B78689847FB7B18461037BD4609
:1049E80080BD000080B584B000AF78607B681B6C28
:1049F8001B68FB607B681B681B68BB607B685B6C23
:104A080003F01C0304229A40FB681340002B27D0B4
:104A1800BB6803F00403002B22D07B681B681B686B
:104A280003F02003002B07D17B681B681A687B689A
:104A38001B6822F004021A607B685B6C03F01C029E
:104A48007B681B6C042101FA02F25A607B681B6BBD
:104A5800002B00F081807B681B6B786898477BE0AF
:104A68007B685B6C03F01C0302229A40FB681340CE
:104A7800002B3DD0BB6803F00203002B38D07B68C5
:104A88001B681B6803F02003002B0BD17B681B6895
:104A98001A687B681B6822F00A021A607B68012288
:104AA80083F825207B681B681A462E4B9A4209D941
:104AB8007B685B6C03F01C032B4A022101FA03F3A9
:104AC800536008E07B685B6C03F01C03274A0221F3
:104AD80001FA03F353607B68002283F824207B6883
:104AE800DB6A002B38D07B68DB6A7868984733E04C
:104AF8007B685B6C03F01C0308229A40FB68134038
:104B0800002B2AD0BB6803F00803002B25D07B6854
:104B18001B681A687B681B6822F00E021A607B68A3
:104B28005B6C03F01C027B681B6C012101FA02F22A
:104B38005A607B680122DA637B68012283F82520AA
:104B48007B68002283F824207B685B6B002B04D0F1
:104B58007B685B6B7868984700BF00BF1037BD461D
:104B680080BD00BF800002400004024000000240F7
:104B780080B485B000AFF860B9607A603B60FB68CC
:104B8800DB6CFA68126D5A60FB685B6D002B04D011
:104B9800FB689B6DFA68D26D5A60FB685B6C03F02A
:104BA8001C02FB681B6C012101FA02F25A60FB68C7
:104BB8001B683A685A60FB689B68102B08D1FB6831
:104BC8001B687A689A60FB681B68BA68DA6007E055
:104BD800FB681B68BA689A60FB681B687A68DA60C9
:104BE80000BF1437BD4680BC7047000080B485B054
:104BF80000AF78607B681B681A461C4B9A4213D832
:104C08007B685B6C9B089B0003F1804303F50233D0
:104C18007A6893647B681B68DBB2083B144AA2FB82
:104C280003231B09FB6011E07B685B6C9B089A00FF
:104C3800104B13447A6893647B681B68DBB2083BAB
:104C48000B4AA2FB03231B090733FB607B680A4A54
:104C5800DA64FB6803F01F0301229A407B681A6537
:104C680000BF1437BD4680BC704700BF0704024030
:104C7800CDCCCCCC1C0802408008024080B485B062
:104C880000AF78607B685B6803F07F03FB60FA68BD
:104C98000A4B13449B001A467B685A657B68084A8E
:104CA8009A65FB68013B03F0030301229A407B6885
:104CB800DA6500BF1437BD4680BC70473F820010DC
:104CC8004009024080B586B000AFF860B960C7E916
:104CD80000231C4B1B78012B01D102232DE0194B1B
:104CE80001221A70174B00225A604FF47A7000F0B4
:104CF80069F80346FB75FB7D002B1AD1FB68012B75
:104D080005D1D7E90023B86800F0BEF804E03B6895
:104D18001946B86800F0DEF84FF47A7000F052F8DF
:104D28000346FB75084B5A69FB68DB430649134089
:104D38004B61044B00221A70FB7D18461837BD469C
:104D480080BD00BF600400200040005880B483B0DC
:104D580000AF0023FB710B4B5B69002B0BDA094B8F
:104D6800094A9A60074B094A9A60064B5B69002B0F
:104D780001DA0123FB71FB7918460C37BD4680BC6C
:104D8800704700BF0040005823016745AB89EFCD4D
:104D980080B483B000AF0023FB71094B5B69084AFC
:104DA80043F000435361064B5B69002B01DB012391
:104DB800FB71FB7918460C37BD4680BC704700BFB5
:104DC8000040005880B584B000AF7860FDF70AFB5A
:104DD800F86009E0FDF706FB0246FB68D31A7A681B
:104DE8009A4201D8032346E0254B1B6903F480331C
:104DF800B3F5803FEED0224B1B69BB60BB6803F064
:104E08000103002B02D01E4B01221A61BA684CF232
:104E1800FA331340BB60BB68B3F1804F07D3184B1C
:104E28009A69BB6803F04043154913438B61BB681B
:104E380023F04043002B04D0114ABB6823F04043C1
:104E48001361BB68002B0ED00E4ABB685360012368
:104E580011E0FDF7C7FA0246FB68D31A7A689A424E
:104E680001D8032307E0064B1B6903F48023B3F53D
:104E7800802FEED0002318461037BD4680BD00BFF6
:104E8800004000586004002080B485B000AFF8608E
:104E9800C7E900230E4B5B690D4A43F001035361D8
:104EA800FB683A681A60BFF36F8F00BFD7E900014B
:104EB8004FF000024FF000030A000023F9680431A4
:104EC80013460B6000BF1437BD4680BC704700BF57
:104ED8000040005880B489B000AF78603960402342
:104EE800FB777B68BB613B687B61184B5B69174A42
:104EF80043F480235361EFF31083FB60FB683B614D
:104F080072B600BF7B691A68BB691A60BB69043353
:104F1800BB617B6904337B61FB7F013BFB77FB7FD4
:104F2800002BEFD100BF094B1B6903F48033B3F5A5
:104F3800803FF8D03B69BB60BB6883F3108800BF33
:104F480000BF2437BD4680BC704700BF00400058F2
:104F580080B584B000AF78603960284B1B78012B8E
:104F680001D1022346E0254B01221A70234B00226F
:104F78005A604FF47A70FFF725FF0346FB73FB7BFB
:104F8800002B33D17B681B68042B08D100F038F85C
:104F98004FF47A70FFF716FF0346FB7324E03B6873
:104FA8004FF0FF321A607B685B68BB6012E0B8683C
:104FB80000F036F84FF47A70FFF704FF0346FB73EE
:104FC800FB7B002B03D03B68BA681A600AE0BB6819
:104FD8000133BB607B685A687B689B681344BA6876
:104FE8009A42E4D300F078F800F032F8034B00223C
:104FF8001A70FB7B18461037BD4680BD6004002040
:1050080080B400AF054B5B69044A43F4803343F036
:105018000403536100BFBD4680BC70470040005880
:1050280080B483B000AF7860084B5B6923F47E726C
:105038007B68DB001343054A43F4803343F00203E3
:10504800536100BF0C37BD4680BC70470040005814
:1050580080B400AF1F4B1B6803F40073012B17D1FA
:105068001C4B1B681B4A23F400731360194B1B6805
:10507800184A43F400631360164B1B68154A23F45F
:1050880000631360134B1B68124A43F400731360E8
:10509800104B1B6803F48063012B17D10D4B1B6861
:1050A8000C4A23F4806313600A4B1B68094A43F4D3
:1050B80080531360074B1B68064A23F48053136020
:1050C800044B1B68034A43F48063136000BFBD466A
:1050D80080BC70470040005880B400AF054B5B6946
:1050E800044A23F47E7323F00203536100BFBD46D4
:1050F80080BC70470040005880B487B000AF78602B
:10510800396000237B6140E13B681A6801217B69B3
:1051180001FA03F31340FB60FB68002B00F03281B7
:105128003B685B6803F00303012B05D03B685B68B1
:1051380003F00303022B30D17B689B683B617B69DA
:105148005B00032202FA03F3DB433A6913403B6135
:105158003B68DA687B695B0002FA03F33A69134338
:105168003B617B683A699A607B685B683B610122B6
:105178007B6902FA03F3DB433A6913403B613B68FE
:105188005B681B0903F001027B6902FA03F33A69C1
:1051980013433B617B683A695A603B685B6803F07C
:1051A8000303032B17D07B68DB683B617B695B00DB
:1051B800032202FA03F3DB433A6913403B613B687D
:1051C8009A687B695B0002FA03F33A6913433B610F
:1051D8007B683A69DA603B685B6803F00303022B7B
:1051E80023D17B69DA087B68083253F822303B61A7
:1051F8007B6903F007039B000F2202FA03F3DB43EA
:105208003A6913403B613B681A697B6903F00703FD
:105218009B0002FA03F33A6913433B617B69DA089E
:105228007B680832396943F822107B681B683B6148
:105238007B695B00032202FA03F3DB433A691340FC
:105248003B613B685B6803F003027B695B0002FA21
:1052580003F33A6913433B617B683A691A603B6818
:105268005B6803F44033002B00F08C804E4A7B6966
:105278009B08023352F823303B617B6903F0030338
:105288009B00072202FA03F3DB433A6913403B61B0
:105298007B68B3F1904F0DD07B68444A934207D0A6
:1052A8007B68434A934201D1022304E0072302E0CA
:1052B800012300E000237A6902F003029200934080
:1052C8003A6913433B6138497B699B0802333A6961
:1052D80041F82320374B1B683B61FB68DB433A6985
:1052E80013403B613B685B6803F48013002B03D0D9
:1052F8003A69FB6813433B612E4A3B6913602D4BA7
:105308005B683B61FB68DB433A6913403B613B6880
:105318005B6803F40013002B03D03A69FB6813435E
:105328003B61244A3B695360224BD3F880303B6190
:10533800FB68DB433A6913403B613B685B6803F4F5
:105348008033002B03D03A69FB6813433B61194A49
:105358003B69C2F88030174BD3F884303B61FB6857
:10536800DB433A6913403B613B685B6803F40033F5
:10537800002B03D03A69FB6813433B610D4A3B6934
:10538800C2F884307B6901337B613B681A687B69AA
:1053980022FA03F3002B7FF4B7AE00BF00BF1C371F
:1053A800BD4680BC704700BF0000014000040048B3
:1053B800000800480008005880B487B000AF786043
:1053C800396000237B61AFE001227B6902FA03F3B5
:1053D8003A6813403B613B69002B00F0A280594AB0
:1053E8007B699B08023352F82330FB607B6903F02A
:1053F80003039B00072202FA03F3FA681340FB60D9
:105408007B68B3F1904F0DD07B684F4A934207D029
:105418007B684E4A934201D1022304E0072302E04D
:10542800012300E000237A6902F00302920093400E
:10543800FA689A4236D1464BD3F880203B69DB4361
:1054480043491340C1F88030414BD3F884203B696D
:10545800DB433F491340C1F884303D4B1A683B6930
:10546800DB433B4913400B60394B5A683B69DB43CC
:10547800374913404B607B6903F003039B00072205
:1054880002FA03F3FB602F4A7B699B08023352F848
:105498002310FB68DA432B487B699B080A400233D8
:1054A80040F823207B681A687B695B00032101FAB6
:1054B80003F31A437B681A607B69DA087B68083251
:1054C80053F822107B6903F007039B000F2202FAAE
:1054D80003F3DB437A69D20819407B68083243F842
:1054E80022107B689A687B695B00032101FA03F349
:1054F800DB431A407B689A607B685A6801217B69A4
:1055080001FA03F3DB431A407B685A607B68DA6868
:105518007B695B00032101FA03F3DB431A407B68D4
:10552800DA607B6901337B613A687B6922FA03F3AD
:10553800002B7FF449AF00BF00BF1C37BD4680BCBD
:10554800704700BF00000140000400480008004800
:105558000008005880B483B000AF78600B467B80A9
:1055680013467B707B78002B03D07A887B689A611E
:1055780002E07A887B689A6200BF0C37BD4680BC1F
:10558800704780B582B000AF78607B68002B01D18E
:1055980001238DE07B6893F84130DBB2002B06D104
:1055A8007B68002283F840207868FCF799FA7B68CA
:1055B800242283F841207B681B681A687B681B6873
:1055C80022F001021A607B685A687B681B6822F027
:1055D80070621A617B681B689A687B681B6822F492
:1055E80000429A607B68DB68012B07D17B689A6868
:1055F8007B681B6842F400429A6006E07B689A6800
:105608007B681B6842F404429A607B68DB68022B63
:1056180008D17B681B685A687B681B6842F4006283
:105628005A6007E07B681B685A687B681B6822F42D
:1056380000625A607B681B685B687A68126843F08E
:10564800007343F4004353607B681B68DA687B6827
:105658001B6822F40042DA607B681A697B685B6920
:1056680042EA03017B689B691A027B681B680A434C
:10567800DA607B68D9697B681A6A7B681B680A43A9
:105688001A607B681B681A687B681B6842F0010215
:105698001A607B6800225A647B68202283F84120C4
:1056A8007B6800221A637B68002283F8422000236B
:1056B80018460837BD4680BD80B588B002AFF8608F
:1056C8007A601A460B467B8113463B81FB6893F848
:1056D8004130DBB2202B40F0FD80FB6893F840306E
:1056E800012B01D10223F6E0FB68012283F8402058
:1056F800FCF778FE38613B690093192301224FF4C7
:105708000041F86800F009FA0346002B01D0012394
:10571800E1E0FB68212283F84120FB68102283F82E
:105728004220FB6800225A64FB687A685A62FB6868
:105738003A895A85FB6800225A63FB685B8D9BB2E5
:10574800FF2B06D9FB68FF221A854FF080737B6117
:1057580007E0FB685B8D9AB2FB681A854FF000730F
:105768007B61FB681B8D002B24D0FB685B6A1A7871
:10577800FB681B689A62FB685B6A5A1CFB685A6282
:10578800FB685B8D9BB2013B9AB2FB685A85FB684C
:105798001B8D013B9AB2FB681A85FB681B8DDBB237
:1057A8000133DAB279894E4B00937B69F86800F0CF
:1057B80003FC66E0FB681B8DDAB27989484B0093DD
:1057C8007B69F86800F0F8FB5BE03A69396AF868C9
:1057D80000F0FCF90346002B01D001237BE0FB68B5
:1057E8005B6A1A78FB681B689A62FB685B6A5A1CDA
:1057F800FB685A62FB685B8D9BB2013B9AB2FB68FF
:105808005A85FB681B8D013B9AB2FB681A85FB68B9
:105818005B8D9BB2002B34D0FB681B8D002B30D1E5
:105828003B6900933B6A00228021F86800F075F913
:105838000346002B01D001234DE0FB685B8D9BB232
:10584800FF2B0ED9FB68FF221A85FB681B8DDAB285
:105858007989002300934FF08073F86800F0ACFB5F
:105868000FE0FB685B8D9AB2FB681A85FB681B8D9D
:10587800DAB27989002300934FF00073F86800F0DA
:105888009BFBFB685B8D9BB2002B9ED13A69396A02
:10589800F86800F0E2F90346002B01D001231AE072
:1058A800FB681B682022DA61FB681B685968FB6883
:1058B8001A680C4B0B405360FB68202283F8412088
:1058C800FB68002283F84220FB68002283F840200E
:1058D800002300E0022318461837BD4680BD00BFEC
:1058E8000020008000E800FE80B588B002AFF860B4
:1058F8007A601A460B467B8113463B81FB6893F816
:105908004130DBB2202B40F0DB80FB6893F840305D
:10591800012B01D10223D4E0FB68012283F8402047
:10592800FCF760FD78617B690093192301224FF42D
:105938000041F86800F0F1F80346002B01D001237C
:10594800BFE0FB68222283F84120FB68102283F81D
:105958004220FB6800225A64FB687A685A62FB6836
:105968003A895A85FB6800225A63FB685B8D9BB2B3
:10597800FF2B0ED9FB68FF221A85FB681B8DDAB254
:105988007989524B00934FF08073F86800F014FB4C
:105998006DE0FB685B8D9AB2FB681A85FB681B8D0E
:1059A800DAB27989494B00934FF00073F86800F038
:1059B80003FB5CE07A69396AF86800F091F90346FC
:1059C800002B01D001237CE0FB681B685A6AFB6846
:1059D8005B6AD2B21A70FB685B6A5A1CFB685A622F
:1059E800FB681B8D013B9AB2FB681A85FB685B8DCF
:1059F8009BB2013B9AB2FB685A85FB685B8D9BB2F0
:105A0800002B34D0FB681B8D002B30D17B690093B1
:105A18003B6A00228021F86800F07FF80346002BDB
:105A280001D001234DE0FB685B8D9BB2FF2B0ED9A3
:105A3800FB68FF221A85FB681B8DDAB2798900237F
:105A480000934FF08073F86800F0B6FA0FE0FB6837
:105A58005B8D9AB2FB681A85FB681B8DDAB279896F
:105A6800002300934FF00073F86800F0A5FAFB6874
:105A78005B8D9BB2002B9DD17A69396AF86800F07A
:105A8800ECF80346002B01D001231AE0FB681B68E1
:105A98002022DA61FB681B685968FB681A680C4B9E
:105AA8000B405360FB68202283F84120FB680022EA
:105AB80083F84220FB68002283F84020002300E09E
:105AC800022318461837BD4680BD00BF0024008059
